:020000040800F2
:10000000000A00202D020008E9570008EB0C000848
:10001000E55700080D0A00082372000800000000E0
:100020000000000000000000000000003D67000824
:10003000110A000800000000A565000851680008CA
:10004000470200084702000847020008470200086C
:10005000470200084702000847020008470200085C
:10006000470200084702000847020008470200084C
:10007000470200084702000847020008470200083C
:10008000470200084702000847020008470200082C
:10009000470200084702000847020008470200081C
:1000A000470200084702000847020008470200080C
:1000B000C16800089D6900086D6A000847020008D1
:1000C00047020008470200084702000847020008EC
:1000D00047020008E16F00084702000847020008D5
:1000E00047020008470200084702000847020008CC
:1000F00047020008470200084702000847020008BC
:1001000047020008470200084702000847020008AB
:10011000470200084702000847020008A56A0008D5
:10012000470200084702000847020008470200088B
:1001300000F002F800F06BF80AA090E8000C82448E
:100140008344AAF10107DA4501D100F060F8AFF26B
:10015000090EBAE80F0013F0010F18BFFB1A43F0A5
:100160000103184738F6000058F600000A444FF023
:10017000000C10F8013B13F0070408BF10F8014B06
:100180001D1108BF10F8015B641E05D010F8016B4B
:10019000641E01F8016BF9D113F0080F1EBF10F8AF
:1001A000014BAD1C0C1B09D16D1E58BF01F801CBD2
:1001B000FAD505E014F8016B01F8016B6D1EF9D555
:1001C0009142D6D37047000000230024002500266A
:1001D000103A28BF78C1FBD8520728BF30C148BFAA
:1001E0000B607047642900F0C380752900F0C0805F
:1001F000782900F0F980632900F00383732900F067
:100200000883002070471FB51FBD10B510BD00F05A
:1002100085FB1146FFF7F7FF08F0C6FD00F0A3FBD2
:1002200003B4FFF7F2FF03BC07F081F809488047E9
:1002300009480047FEE7FEE7FEE7FEE7FEE7FEE7C8
:10024000FEE7FEE7FEE7FEE704480549054A064BE0
:1002500070470000556800083101000800040020C4
:10026000000A00200006002000060020704710B59C
:100270004C1084EA530404D54042C1F1000138BF58
:10028000491E1B4204D55242C3F1000338BF5B1E16
:1002900000F0D2F914F0804F04D04042C1F10001C7
:1002A00038BF491E14F0004F04D05242C3F100037E
:1002B00038BF5B1E10BD00000FB4044910B503AA7F
:1002C000029800F0ABFA10BC5DF814FB700000203F
:1002D00070B5044685690068C10601D5302600E086
:1002E0002026C00707D070BDD4E9012130469047D1
:1002F000206A401C20626D1EF6D570BD70B50446A4
:1003000085690078C00707D170BDD4E9012120209C
:100310009047206A401C20626D1EF6D570BD70B5F6
:100320000C460546012A05D02878800600D5EA69E2
:10033000002302E0012305E05B1C934202D2E05C53
:100340000028F9D1A869E618C01AA861286A1844DB
:1003500028622846FFF7BCFF04E0D5E9012114F824
:10036000010B9047B442F8D32846FFF7C7FF70BD92
:100370002DE9F0410646002410687529314616A57E
:1003800010D0AFF30080002802DA404213A507E046
:1003900031688A0701D512A502E0490704D511A5E5
:1003A000012401E0AFF3008000210A2206F12407B6
:1003B00009E0B0FBF2FCB0FBF2F302FB1C003030B2
:1003C00078541846491C0028F3D123462A46304663
:1003D000BDE8F04100F0B2B9000000002D000000BF
:1003E0002B0000002000000070B504460D46214699
:1003F0001068AFF300802188090502D50F4A7A44BE
:1004000002E00E4A7A440E32002104F1240305E092
:1004100000F00F060009965D5E54491C0028F7D1D4
:1004200020780023000704D5702D02D009B10223E3
:1004300011322046BDE8704000F080B926F100007E
:100440002DE9F05F894604464FF0000ADFF874B1E9
:10045000FB44C0F820A02046E1688847002874D0FB
:10046000252806D0D4E901219047206A401C20624B
:10047000F1E700265F462046E168884720280546C8
:1004800007DB312D05D2781910F8200C08B106438E
:10049000F1E7B00701D526F00406C4F81CA0002738
:1004A000C4F818A02A2D09D0284606F039FF38B321
:1004B00004EB8708303DC8F8185019E059F8041BC0
:1004C000204604EB87029161E1688847012F0546C9
:1004D00018D1E069002820DA26F020061DE0D8F8BF
:1004E000180000EB800005EB40003038C8F8180019
:1004F0002046E1688847054606F012FF0028EED145
:10050000012F0AD02E2D08D12046E16888477F1C94
:100510000546022F46F02006C4DBA069002803DA56
:10052000404246F00106A061F00701D026F0100617
:100530006C2D0BD0682D09D04C2D39D06A2D35D0BB
:10054000742D35D07A2D33D016E038E0E1682F468F
:1005500020468847B842054609D16C2F26D04FF473
:100560008060E168064320468847054604E06C2F1A
:100570001AD04FF4807006430DB3A5F1410019283D
:1005800002D8203546F400664A46294620462660B1
:100590004E46FFF727FE80B101280BD0F61D26F04E
:1005A000070000F1080956E74020E4E78020D8E77B
:1005B0000020D6E706F104094DE7284652E7206AF5
:1005C000BDE8F09FFCF0000040EA010310B59B0776
:1005D0000FD1042A0DD310C808C9121F9C42F8D0AD
:1005E00020BA19BA884201D9012010BD4FF0FF305E
:1005F00010BD1AB1D30703D0521C07E0002010BD74
:1006000010F8013B11F8014B1B1B07D110F8013BFF
:1006100011F8014B1B1B01D1921EF1D1184610BDE0
:1006200002F0FF0343EA032242EA024200F00AB961
:10063000704770477047704753EA020C00F06980BA
:100640002DE9F04B4FF00006002B1FBFB3FA83F5E6
:1006500003FA05F424FA05F65E4012BF1643B2FA17
:1006600082F502FA05F4C5F120051EBF22FA05FC49
:1006700044EA0C04203556EA044C4FEA144418BFEF
:10068000641C4FF000084FF00009904271EB030C1E
:1006900039D3002919BFB1FA81F701FA07F6B0FA88
:1006A00080F700FA07F6C7F120071EBF20FA07FC03
:1006B00046EA0C062037B6FBF4FCA7EB0507103F13
:1006C00007F01F0BCBF120060CFA0BFB2CFA06F6F9
:1006D00044BFB3460026202FA4BF5E464FF0000B58
:1006E0005BEA060C08BF4FF0010B19EB0B09ABFBE3
:1006F000027C48EB0608C01B06FB02CC0BFB03CCBC
:1007000071EB0C01C1E70B46024641464846BDE885
:10071000F08B13B54FF000004FF00001AFF30080F5
:10072000BDE81C40704710B500F0ACF8006810BD83
:1007300010B5044600F0A6F8046010BD2DE9F0479E
:100740000D4699469246044600F124080168880641
:1007500004D5E06921F01001216000E00120A842E9
:1007600001DD471B00E00027A1697A1902EB0900AF
:10077000081AA0612078C00602D42046FFF7A8FD21
:10078000002608E0D4E901211AF806009047206A03
:10079000401C761C20624E45F4DB2078C0060AD54A
:1007A0002046FFF795FD06E0D4E90121302090476F
:1007B000206A401C2062381EA7F10107F4DC07E024
:1007C000D4E9012118F805009047206A401C2062F6
:1007D000281EA5F10105F3DC2046FFF78FFD2078E8
:1007E000000602D50220BDE8F0870120FBE710B526
:1007F000436913B1AFF3008001E0FFF790FD0120E2
:1008000010BD127800F124010A7000224A70012202
:10081000EDE711684FF0FF32E9E70000074B70B5D4
:100820000D467B4400F037F80446284600F046F8B1
:1008300010B14FF0FF3070BD204670BDBB7E000090
:100840004FF000020429C0F0128010F0030C00F0F9
:100850003B80CCF1040CBCF1020F18BF00F8012B57
:10086000A8BF20F8022BA1EB0C0100F02DB85FEA25
:10087000C17C24BF00F8012B00F8012B48BF00F811
:10088000012B704700487047A003002001694A1CF3
:1008900002610878704700B58FB0CDE901310021C1
:1008A000059105497944CDE9031011466846FFF7E3
:1008B000C7FD0FB000BD0000E5FFFFFF007B00F0AB
:1008C000800070474FF0000200B5134694469646EC
:1008D000203922BFA0E80C50A0E80C50B1F1200153
:1008E000BFF4F7AF090728BFA0E80C5048BF0CC001
:1008F0005DF804EB890028BF40F8042B08BF70475F
:1009000048BF20F8022B11F0804F18BF00F8012BD0
:100910007047000000487047A00300207546FFF7AD
:10092000F9FFAE4605006946534620F007008546AC
:1009300018B020B5FFF788FCBDE820404FF0000656
:100940004FF000074FF000084FF0000B21F00701B7
:10095000AC46ACE8C009ACE8C009ACE8C009ACE8FA
:10096000C0098D4670470446AFF300802046FFF76C
:1009700057FC000000B587B00121C80205F034FE25
:1009800040F2CF70ADF804004720ADF80000002021
:10099000ADF80600ADF802008DF8080069461A4867
:1009A00006F09EFA7020ADF80C000120ADF80E00A4
:1009B0000420ADF810000020ADF81200ADF81400CE
:1009C000ADF816004FF48070ADF818000020ADF8B7
:1009D0001A0003A90C4806F069F903A90A4806F0B1
:1009E000BBF90821084806F0ADF90821064806F0D1
:1009F00005FA0121044806F0EFF80121024806F04B
:100A0000F7F807B000BD0000002C014000BFFEE772
:100A10007047000051B18200A2F1C042126842F05A
:100A200001038200A2F1C042136009E08200A2F13A
:100A3000C0421268034B1A408300A3F1C0431A60FE
:100A400070470000FEFF0F00D0E901121143C26899
:100A50001143026911434269114382691143C2691A
:100A60001143026A1143426A1143826A1143C26A06
:100A70001143026B114302689200A2F1C04211605F
:100A8000816808290BD101688900A1F1C04109687A
:100A900041F0400201688900A1F1C0410A60416B48
:100AA0000968426B526841EA0211426B926841EA5E
:100AB0000221426B928941EA0241426B128A41EA69
:100AC0000251426B127D41EA0261426B926911430D
:100AD0000268521C9200A2F1C0421160C16AB1F5D5
:100AE000804F1BD1816B0968826B526841EA021109
:100AF000826B926841EA0221826B128A41EA0251BA
:100B0000826B127D41EA0261826B92691143026835
:100B10009200A2F1C042C2F8041107E06FF07042E7
:100B200001688900A1F1C041C1F8042170472DE995
:100B3000F041024600250026002000230024002763
:100B400091F803C00CF00F0591F803C00CF0100CE5
:100B5000BCF1000F03D091F802C04CEA050591F8F2
:100B600000C0BCF1000F31D0146800202BE04FF022
:100B7000010C0CFA00F3B1F800C00CEA03069E4227
:100B800020D183004FF00F0C0CFA03F7BC4305FA99
:100B900003FC4CEA040491F803C0BCF1280F06D111
:100BA0004FF0010C0CFA00FCC2F814C00AE091F8F6
:100BB00003C0BCF1480F05D14FF0010C0CFA00FC4A
:100BC000C2F810C0401C0828D1D31460B1F800C08E
:100BD000BCF1FF0F34DD546800202EE000F1080C5A
:100BE0004FF0010808FA0CF3B1F800C00CEA030654
:100BF0009E4221D183004FF00F0C0CFA03F7BC4347
:100C000005FA03FC4CEA040491F803C0BCF1280F78
:100C100005D100F1080C08FA0CF8C2F8148091F81C
:100C200003C0BCF1480F07D100F1080C4FF00108D8
:100C300008FA0CF8C2F81080401C0828CED3546083
:100C4000BDE8F081F0B50A4600230024002100250C
:100C500000F00046B6F1004F02D11D4EF16901E0EF
:100C60001B4E7168C0F3034583B200F44016B6F51D
:100C7000401F08D121F07061154E766826F070662D
:100C8000134F7E6012E000F48016B6F5801F06D187
:100C9000032606FA05F4A14341F0706106E0460D13
:100CA000360103FA06F6B14341F0706122B1460DF8
:100CB000360103FA06F6314300F00046B6F1004F64
:100CC00002D1034EF16101E0014E7160F0BD000000
:100CD000000001400246002093680B400BB1012048
:100CE00000E0002070470161704700BFFEE7000090
:100CF00008B50121442005F077FC1820ADF800006C
:100D000048208DF8030069460648FFF710FF0120D0
:100D1000ADF8000028208DF8030069460248FFF76F
:100D200006FF08BD001801400008014010B5044648
:100D300014B10120234908702248007858B31021CB
:100D40002148FFF7C7FF50B108211F48FFF7C2FF36
:100D500028B101211D48FFF7BDFF01281BD10A2042
:100D600006F098FE00201749087010211648FFF77A
:100D7000B1FF08B9012010BD08211348FFF7AAFFF1
:100D800008B90220F7E701211048FFF7A3FF012867
:100D900015D10320EFE710210B48FFF79BFF012837
:100DA0000DD108210848FFF795FF012807D101213F
:100DB0000648FFF78FFF10B9012002490870002094
:100DC000D9E700002C000020001801400008014075
:100DD00070B50446002617480588408845431548E5
:100DE000808846F60401884216D11248807901288D
:100DF00012D100200F4988712A2048812B20888138
:100E00000021084603F08EFF01200A4988712B203B
:100E100048812A20888103E00021084603F082FFF0
:100E200004F072F9002602E003480480761CAE420A
:100E3000FAD370BD340200200008006C10B50446DF
:100E4000002C66D16C498871F02008804FF4A070A6
:100E500048800846808849F2413188420BD0664874
:100E6000808846F60401884205D06348808845F2B0
:100E7000103188421AD12C205F4908812A204881EC
:100E80002B2088810846808846F60401884205D0D8
:100E90005948808845F21031884206D14FF4A0703D
:100EA000554908804FF4F0704880A1E0524880888E
:100EB00045F21051884210D14FF430504E4908810C
:100EC0004FF4285048814FF42C5088814FF4F07033
:100ED00008804FF4487048808AE04748808841F68F
:100EE000631188420DD12C20434908812B20488171
:100EF0002A2088814FF4F07008804FF448704880B1
:100F000076E022203C4908812020488121208881E8
:100F10006EE00120384988714FF4A0700880F020FD
:100F200048800846808849F24131884205D03248DD
:100F3000808845F21031884207D12C202E49088143
:100F40002A2048812B2088813FE02B48808846F664
:100F50000401884207D12C20274908812B20488191
:100F60002A20888131E02448808845F21051884247
:100F700010D14FF43050204908814FF42850488157
:100F80004FF42C5088814FF4487008804FF4F07073
:100F900048801AE01848808841F6631188420DD1D4
:100FA0002C20154908812A2048812B2088814FF464
:100FB000487008804FF4F070488006E022200E4907
:100FC000088121204881202088810B48808846F6AE
:100FD0000401884205D00848808845F210318842D3
:100FE00006D14FF4F070044908804FF4A070488097
:100FF000002003F021FD10BD3402002030B503466F
:101000000C4615465A48808849F24131884205D03D
:101010005748808845F21031884214D15449488994
:1010200004F06CF8181204F063F8D8B204F060F819
:101030004F49888904F062F8201204F059F8E0B2B0
:1010400004F056F88CE04A48808845F210518842F6
:1010500020D14749488904F051F8181204F048F8A3
:1010600043494989491C88B204F048F8D8B204F0D1
:101070003FF83F49888904F041F8201204F038F81D
:101080003B498989491C88B204F038F8E0B204F081
:101090002FF865E03648808841F66311884228D1F0
:1010A0003348807920B932480088401EC01A83B284
:1010B0002F49488904F022F8181204F019F8D8B220
:1010C00004F016F8181204F013F8D8B204F010F86F
:1010D0002749888904F012F8201204F009F8E0B2D8
:1010E00004F006F8201204F003F8E0B204F000F86F
:1010F00036E01F48808846F6040188421DD11C480E
:101100008079012804D11A480088401EC01A83B291
:101110001749488903F0F2FF181203F0E9FFD8B22B
:1011200003F0E6FF1249888903F0E8FF201203F07C
:10113000DFFFE0B203F0DCFF12E00D488079012808
:1011400004D10B480088401EC01A83B20849488960
:10115000194603F0E3FF06498889214603F0DEFFC4
:101160000348008903490880881C058030BD0000C1
:1011700034020020FE07006C2DE9FC4F05460E46A8
:1011800017469846DDF82C9000200190274880886B
:1011900046F60401884229D124488079012825D1C6
:1011A000AB46354621480088C01B401E86B24746E4
:1011B0001E480088A0EB0B00401E1FFA80F800209C
:1011C0001A4988712A2048812B20888143463A4653
:1011D00031462846CDF80090FFF7CEFF0120134995
:1011E00088712B2048812A2088811CE0781B401CB4
:1011F00080B20190344614E02146284603F092FD67
:1012000003F082FF4FF0000A06E00948A0F80090C2
:101210000AF101001FFA80FA01988245F5DB601C93
:1012200084B24445E8DDBDE8FC8F000034020020B4
:101230000008006C00B59FB00121080205F0B4F968
:1012400001214FF4B47005F0CFF90120ADF878001A
:1012500010208DF87B0003208DF87A001EA9FE482F
:10126000FFF765FC4CF23370ADF8780018208DF86C
:101270007B0003208DF87A001EA9F848FFF757FC81
:101280004FF68070ADF8780018208DF87B000320B1
:101290008DF87A001EA9F248FFF749FC41F20100DF
:1012A000ADF8780018208DF87B0003208DF87A00C7
:1012B0001EA9EC48FFF73BFC012008900020099094
:1012C0000F200A9000200B900C900D900E90019032
:1012D0000290032003900020049005900690079050
:1012E00006200F90002010901190102012900020E6
:1012F000139015901490169017904FF480501890FA
:10130000002019904FF480401A9000201B9008A8EC
:101310001C9001A81D900FA8FFF796FB0121062045
:10132000FFF778FB322006F0B5FB002003F04EFB00
:10133000CD49888008468088FF280ADB08468088D7
:101340004FF6FF71884204D0C7488088B0F5134F2C
:101350007ED1D32003F0D2FE03F02EFBC249888059
:1013600003F02AFBC049888003F026FBBE49888031
:10137000084680884FF6FF7101EA0020BA4988804C
:1013800003F01AFBB84989880843B74988800846A2
:10139000808849F2413188425AD0BF2003F0AEFE26
:1013A00003F00AFBB049888003F006FBAE49888051
:1013B00003F002FBAC49888003F0FEFAAA4988805A
:1013C000084680884FF6FF7101EA0020A649888010
:1013D00003F0F2FAA44989880843A34988800846A3
:1013E000808846F6040188427AD0D42003F086FE35
:1013F00003F0E2FA9C49888003F0DEFA9A4988807B
:1014000003F0DAFA98498880084680884FF6FF7121
:1014100001EA00209449888003F0CEFA9249898835
:101420000843914988800846808845F210318842F7
:1014300056D04FF45A4003F061FE03F0BDFA8A49DA
:1014400088804FF45B4003F059FE03F0B5FA00E0EA
:1014500046E085498880084680884FF6FF7101EA9A
:101460000020814988804FF45C4003F047FE03F080
:10147000A3FA7D49898808437B498880084680888B
:10148000B0F5004F02D145F2105088807648808830
:1014900045F21051884223D0A12003F02FFE03F023
:1014A0008BFA7149888003F087FA6F498880084673
:1014B00080884FF6FF7101EA00206B49888003F0B5
:1014C0007BFA69498988084367498880084680888B
:1014D00045F26171884203D141F663106249888008
:1014E0006148818861A0FEF7E7FE5F48808849F285
:1014F000413188427ED1CF2003F000FE002003F06E
:10150000F7FDC12003F0F4FD302003F0F1FDED20E4
:1015100003F0F4FD642003F0EBFD032003F0E8FD8D
:10152000122003F0E5FD812003F0E2FDE82003F046
:10153000E5FD852003F0DCFD102003F0D9FD7A20C5
:1015400003F0D6FDCB2003F0D9FD392003F0D0FD08
:101550002C2003F0CDFD002003F0CAFD342003F061
:10156000C7FD022003F0C4FDF72003F0C7FD2020D3
:1015700003F0BEFDEA2003F0C1FD002003F0B8FD3A
:10158000002003F0B5FDC02003F0B8FD1B2003F0E0
:10159000AFFDC12003F0B2FD012003F0A9FDC5207D
:1015A00003F0ACFD302003F0A3FD302003F0A0FDDC
:1015B000C72003F0A3FDB72003F09AFD362003F007
:1015C0009DFD482003F094FD3A2003F097FD55203F
:1015D00003F08EFDB12003F091FD002003F088FDA3
:1015E0001A2003F085FDB62003F088FD0A2003F0E1
:1015F0007FFD00E0AAE0A22003F07AFDF22003F0D4
:101600007DFD002003F074FD262003F077FD01200E
:1016100003F06EFDE02003F071FD0F2003F068FD84
:101620002A2003F065FD282003F062FD082003F066
:101630005FFD0E2003F05CFD082003F059FD5420EF
:1016400003F056FDA92003F053FD432003F050FDA5
:101650000A2003F04DFD11E0000C01400014014090
:10166000001801400020014034020020204C434477
:101670002049443A25780D0A000000000F2003F0AD
:1016800037FD002003F034FD002003F031FD002081
:1016900003F02EFD002003F02BFDE12003F02EFDD2
:1016A000002003F025FD152003F022FD172003F094
:1016B0001FFD072003F01CFD112003F019FD06207B
:1016C00003F016FD2B2003F013FD562003F010FD50
:1016D0003C2003F00DFD052003F00AFD102003F06F
:1016E00007FD0F2003F004FD3F2003F001FD3F2024
:1016F00003F0FEFC0F2003F0FBFC2B2003F0FEFCAC
:10170000002003F0F5FC002003F0F2FC012003F0C0
:10171000EFFC3F2003F0ECFC2A2003F0EFFC00205C
:1017200003F0E6FC002003F0E3FC002003F0E0FC03
:10173000EF2003F0DDFC112003F0E0FC782006F040
:10174000A9F9292003F0DAFC03F01AB9FE488088D1
:1017500046F6040188427CD1112003F0CFFC14200E
:1017600006F098F9D02003F0C9FC072003F0C0FC74
:10177000422003F0BDFC1D2003F0BAFCD12003F091
:10178000BDFC002003F0B4FC1A2003F0B1FC0920DA
:1017900003F0AEFCD22003F0B1FC012003F0A8FC62
:1017A000222003F0A5FCC02003F0A8FC102003F0C9
:1017B0009FFC3B2003F09CFC002003F099FC0220DE
:1017C00003F096FC112003F093FCC52003F096FC77
:1017D000032003F08DFCC82003F090FC002003F0F0
:1017E00087FC252003F084FC212003F081FC0520E8
:1017F00003F07EFC002003F07BFC0A2003F078FC61
:10180000652003F075FC252003F072FC772003F0BF
:101810006FFC502003F06CFC0F2003F069FC0020EB
:1018200003F066FCF82003F069FC012003F060FC83
:10183000FE2003F063FC002003F05AFC022003F0BA
:1018400057FC202003F05AFC362003F057FC0820F8
:1018500000E02CE003F04CFC3A2003F04FFC552054
:1018600003F046FC2B2003F049FC002003F040FC71
:10187000002003F03DFC012003F03AFC3F2003F080
:1018800037FC2A2003F03AFC002003F031FC002052
:1018900003F02EFC012003F02BFCDF2003F028FCDA
:1018A000782006F0F7F8292003F028FC4CE7A6483A
:1018B000808845F21031884240F07C87ED2003F0AB
:1018C0001DFC012003F014FCFE2003F011FCEE20AF
:1018D00003F014FCDE2003F00BFC212003F008FCD5
:1018E000F12003F00BFC012003F002FCDF2003F0E9
:1018F00005FC102003F0FCFBC42003F0FFFB8F204D
:1019000003F0F6FBC62003F0F9FB002003F0F0FB28
:10191000E22003F0EDFBE22003F0EAFBE22003F01B
:10192000E7FBBF2003F0EAFBAA2003F0E1FBB020B5
:1019300003F0E4FB0D2003F0DBFB002003F0D8FBF9
:101940000D2003F0D5FB002003F0D2FB112003F0A3
:10195000CFFB002003F0CCFB192003F0C9FB0020D3
:1019600003F0C6FB212003F0C3FB002003F0C0FB03
:101970002D2003F0BDFB002003F0BAFB3D2003F057
:10198000B7FB002003F0B4FB5D2003F0B1FB0020A7
:1019900003F0AEFB5D2003F0ABFB002003F0A8FBDF
:1019A000B12003F0ABFB802003F0A2FB002003F08A
:1019B0009FFB8B2003F09CFB002003F099FB9620FB
:1019C00003F096FB002003F093FBB22003F096FB9C
:1019D000002003F08DFB002003F08AFB022003F0BF
:1019E00087FB002003F084FB032003F081FB002031
:1019F00003F07EFBB32003F081FB002003F078FBB3
:101A0000002003F075FB002003F072FB002003F0C0
:101A10006FFB002003F06CFB002003F069FB00204B
:101A200003F066FB002003F063FB002003F060FB83
:101A3000002003F05DFB002003F05AFB002003F0C0
:101A400057FB002003F054FB002003F051FB002063
:101A500003F04EFB002003F04BFB002003F048FB9B
:101A6000002003F045FB002003F042FB002003F0C0
:101A70003FFB002003F03CFB002003F039FB00207B
:101A800003F036FB002003F033FBB42003F036FBF9
:101A90008B2003F02DFB002003F02AFB962003F09F
:101AA00027FB002003F024FBA12003F021FB0020F2
:101AB00003F01EFBB52003F021FB022003F018FB0E
:101AC000002003F015FB032003F012FB002003F0BD
:101AD0000FFB042003F00CFB002003F009FBB620F1
:101AE00003F00CFB002003F003FB002003F000FBDD
:101AF000B72003F003FB002003F0FAFA002003F004
:101B0000F7FA3F2003F0F4FA002003F0F1FA5E2028
:101B100003F0EEFA002003F0EBFA642003F0E8FA99
:101B2000002003F0E5FA8C2003F0E2FA002003F035
:101B3000DFFAAC2003F0DCFA002003F0D9FADC2055
:101B400003F0D6FA002001E03402002003F0D0FABE
:101B5000702003F0CDFA002003F0CAFA902003F0C1
:101B6000C7FA002003F0C4FAEB2003F0C1FA00200A
:101B700003F0BEFADC2003F0BBFA002003F0B8FA51
:101B8000B82003F0BBFA002003F0B2FA002003F003
:101B9000AFFA002003F0ACFA002003F0A9FA00200D
:101BA00003F0A6FA002003F0A3FA002003F0A0FA45
:101BB000002003F09DFABA2003F0A0FA242003F0DD
:101BC00097FA002003F094FA002003F091FA002025
:101BD00003F08EFAC12003F091FA202003F088FA76
:101BE000002003F085FA542003F082FA002003F06D
:101BF0007FFAFF2003F07CFA002003F079FAC2207C
:101C000003F07CFA0A2003F073FA002003F070FA64
:101C1000042003F06DFA002003F06AFAC32003F0F9
:101C20006DFA3C2003F064FA002003F061FA3A20D8
:101C300003F05EFA002003F05BFA392003F058FA53
:101C4000002003F055FA372003F052FA002003F089
:101C50004FFA3C2003F04CFA002003F049FA3620FA
:101C600003F046FA002003F043FA322003F040FA72
:101C7000002003F03DFA2F2003F03AFA002003F091
:101C800037FA2C2003F034FA002003F031FA29202F
:101C900003F02EFA002003F02BFA262003F028FA96
:101CA000002003F025FA242003F022FA002003F09C
:101CB0001FFA242003F01CFA002003F019FA232055
:101CC00003F016FA002003F013FA3C2003F010FA98
:101CD000002003F00DFA362003F00AFA002003F08A
:101CE00007FA322003F004FA002003F001FA2F2053
:101CF00003F0FEF9002003F0FBF92C2003F0F8F9C3
:101D0000002003F0F5F9292003F0F2F9002003F098
:101D1000EFF9262003F0ECF9002003F0E9F9242084
:101D200003F0E6F9002003F0E3F9242003F0E0F9E2
:101D3000002003F0DDF9232003F0DAF9002003F09E
:101D4000D7F9C42003F0DAF9622003F0D1F90020BA
:101D500003F0CEF9052003F0CBF9002003F0C8F919
:101D6000842003F0C5F9002003F0C2F9F02003F04D
:101D7000BFF9002003F0BCF9182003F0B9F90020E6
:101D800003F0B6F9A42003F0B3F9002003F0B0F992
:101D9000182003F0ADF9002003F0AAF9502003F059
:101DA000A7F9002003F0A4F90C2003F0A1F900200A
:101DB00003F09EF9172003F09BF9002003F098F937
:101DC000952003F095F9002003F092F9F32003F039
:101DD0008FF9002003F08CF9E62003F089F9002048
:101DE00003F086F9C52003F089F9322003F080F969
:101DF000002003F07DF9442003F07AF9002003F07D
:101E000077F9652003F074F9002003F071F976206A
:101E100003F06EF9002003F06BF9882003F068F9F5
:101E2000002003F065F9C62003F068F9202003F0D4
:101E30005FF9002003F05CF9172003F059F9002046
:101E400003F056F9012003F053F9002003F050F994
:101E5000C72003F053F9002003F04AF9002003F0F3
:101E600047F9002003F044F9002003F041F9C820AD
:101E700003F044F9002003F03BF9002003F038F9A7
:101E8000002003F035F9002003F032F9C92003F0F7
:101E900035F9002003F02CF9002003F029F9002087
:101EA00003F026F9002003F023F9002003F020F9C5
:101EB000002003F01DF9002003F01AF9002003F0C0
:101EC00017F9002003F014F9002003F011F90020A5
:101ED00003F00EF9002003F00BF9002003F008F9DD
:101EE000002003F005F9002003F002F9002003F0C0
:101EF000FFF8E02003F002F9162003F0F9F80020C3
:101F000003F0F6F81C2003F0F3F8002003F0F0F8DB
:101F1000212003F0EDF8002003F0EAF8362003F06A
:101F2000E7F8002003F0E4F8462003F0E1F8002091
:101F300003F0DEF8522003F0DBF8002003F0D8F8BD
:101F4000642003F0D5F8002003F0D2F87A2003F0E3
:101F5000CFF8002003F0CCF88B2003F0C9F8002064
:101F600003F0C6F8992003F0C3F8002003F0C0F88E
:101F7000A82003F0BDF8002003F0BAF8B92003F060
:101F8000B7F8002003F0B4F8C42003F0B1F8002043
:101F900003F0AEF8CA2003F0ABF8002003F0A8F875
:101FA000D22003F0A5F8002003F0A2F8D92003F016
:101FB0009FF8002003F09CF8E02003F099F800203F
:101FC00003F096F8F32003F093F8002003F090F864
:101FD000E12003F093F8162003F08AF8002003F0C4
:101FE00087F81C2003F084F8002003F081F82220F9
:101FF00003F07EF8002003F07BF8362003F078F839
:10200000002003F075F8452003F072F8002003F07B
:102010006FF8522003F06CF8002003F069F8642098
:1020200003F066F8002003F063F87A2003F060F80C
:10203000002003F05DF88B2003F05AF8002003F035
:1020400057F8992003F054F8002003F051F8A82025
:1020500003F04EF8002003F04BF8B92003F048F8E5
:10206000002003F045F8C42003F042F8002003F0FC
:102070003FF8CA2003F03CF8002003F039F8D220E2
:1020800003F036F8002003F033F8D82003F030F8DE
:10209000002003F02DF8E02003F02AF8002003F0E0
:1020A00027F8F32003F024F8002003F021F8E220C1
:1020B00003F024F8052003F01BF8002003F018F8C3
:1020C0000B2003F015F8002003F012F81B2003F09A
:1020D0000FF8002003F00CF8342003F009F800207A
:1020E00003F006F8442003F003F8002003F000F8A2
:1020F0004F2002F0FDFF002002F0FAFF612002F005
:10210000F7FF002002F0F4FF792002F0F1FF002039
:1021100002F0EEFF882002F0EBFF002002F0E8FF63
:10212000972002F0E5FF002002F0E2FFA62002F077
:10213000DFFF002002F0DCFFB72002F0D9FF002013
:1021400002F0D6FFC22002F0D3FF002002F0D0FF41
:10215000C72002F0CDFF002002F0CAFFD12002F01C
:10216000C7FF002002F0C4FFD62002F0C1FF00200C
:1021700002F0BEFFDD2002F0BBFF002002F0B8FF3E
:10218000F32002F0B5FF002002F0B2FFE32002F0DE
:10219000B5FF052002F0ACFF002002F0A9FF0A20E5
:1021A00002F0A6FF002002F0A3FF1C2002F0A0FF17
:1021B000002002F09DFF332002F09AFF002002F081
:1021C00097FF442002F094FF002002F091FF50207E
:1021D00002F08EFF002002F08BFF622002F088FFE9
:1021E000002002F085FF782002F082FF002002F03C
:1021F0007FFF882002F07CFF002002F079FF97200B
:1022000002F076FF002002F073FFA62002F070FFBC
:10221000002002F06DFFB72002F06AFF002002F0FC
:1022200067FFC22002F064FF002002F061FFC720B8
:1022300002F05EFF002002F05BFFD12002F058FFA9
:10224000002002F055FFD52002F052FF002002F0DE
:102250004FFFDD2002F04CFF002002F049FFF32089
:1022600002F046FF002002F043FFE42002F046FFA8
:10227000012002F03DFF002002F03AFF012002F0B1
:1022800037FF002002F034FF022002F031FF00206F
:1022900002F02EFF2A2002F02BFF002002F028FF80
:1022A0003C2002F025FF002002F022FF4B2002F02C
:1022B0001FFF002002F01CFF5D2002F019FF00202C
:1022C00002F016FF742002F013FF002002F010FF4E
:1022D000842002F00DFF002002F00AFF932002F09C
:1022E00007FF002002F004FFA22002F001FF0020FF
:1022F00002F0FEFEB32002F0FBFE002002F0F8FE2A
:10230000BE2002F0F5FE002002F0F2FEC42002F032
:10231000EFFE002002F0ECFECD2002F0E9FE0020EE
:1023200002F0E6FED32002F0E3FE002002F0E0FE21
:10233000DD2002F0DDFE002002F0DAFEF32002F0E4
:10234000D7FE002002F0D4FEE52002F0D7FE0020E8
:1023500002F0CEFE002002F0CBFE002002F0C8FE0C
:10236000002002F0C5FE022002F0C2FE002002F0B2
:10237000BFFE292002F0BCFE002002F0B9FE3C2086
:1023800002F0B6FE002002F0B3FE4B2002F0B0FED9
:10239000002002F0ADFE5D2002F0AAFE002002F057
:1023A000A7FE742002F0A4FE002002F0A1FE84200B
:1023B00002F09EFE002002F09BFE932002F098FEA9
:1023C000002002F095FEA22002F092FE002002F012
:1023D0008FFEB32002F08CFE002002F089FEBE20AA
:1023E00002F086FE002002F083FEC42002F080FE90
:1023F000002002F07DFECD2002F07AFE002002F0E7
:1024000077FED32002F074FE002002F071FEDC2083
:1024100002F06EFE002002F06BFEF32002F068FE78
:10242000002002F065FEE62002F068FE112002F0B6
:102430005FFE002002F05CFE342002F059FE002016
:1024400002F056FE562002F053FE002002F050FE2D
:10245000762002F04DFE002002F04AFE772002F0C6
:1024600047FE002002F044FE662002F041FE0020FC
:1024700002F03EFE882002F03BFE002002F038FE13
:10248000992002F035FE002002F032FEBB2002F05F
:102490002FFE002002F02CFE992002F029FE0020E1
:1024A00002F026FE662002F023FE002002F020FE4D
:1024B000552002F01DFE002002F01AFE552002F009
:1024C00017FE002002F014FE452002F011FE00204D
:1024D00002F00EFE432002F00BFE002002F008FE88
:1024E000442002F005FE002002F002FEE72002F088
:1024F00005FE322002F0FCFD002002F0F9FD55201F
:1025000002F0F6FD002002F0F3FD762002F0F0FD6F
:10251000002002F0EDFD662002F0EAFD002002F04E
:10252000E7FD672002F0E4FD002002F0E1FD6720F6
:1025300002F0DEFD002002F0DBFD872002F0D8FD76
:10254000002002F0D5FD992002F0D2FD002002F01B
:10255000CFFDBB2002F0CCFD002002F0C9FD992088
:1025600002F0C6FD002002F0C3FD772002F0C0FD9E
:10257000002002F0BDFD442002F0BAFD002002F070
:10258000B7FD562002F0B4FD002002F0B1FD23207B
:1025900002F0AEFD002002F0ABFD332002F0A8FDFA
:1025A000002002F0A5FD452002F0A2FD002002F06F
:1025B0009FFDE82002F0A2FD002002F099FD00201E
:1025C00002F096FD992002F093FD002002F090FDAC
:1025D000872002F08DFD002002F08AFD882002F0A5
:1025E00087FD002002F084FD772002F081FD0020AD
:1025F00002F07EFD662002F07BFD002002F078FDF7
:10260000882002F075FD002002F072FDAA2002F081
:102610006FFD002002F06CFDBB2002F069FD002080
:1026200002F066FD992002F063FD002002F060FDDB
:10263000662002F05DFD002002F05AFD552002F0F8
:1026400057FD002002F054FD552002F051FD0020FE
:1026500002F04EFD442002F04BFD002002F048FD48
:10266000442002F045FD002002F042FD552002F01A
:102670003FFD002002F03CFDE92002F03FFDAA20D2
:1026800002F036FD002002F033FD002002F030FDA4
:10269000002002F02DFD002002F030FDAA2002F003
:1026A00027FDCF2002F02AFD002002F021FD0020AE
:1026B00002F01EFD002002F01BFD002002F018FDBC
:1026C000002002F015FD002002F012FD002002F0B3
:1026D0000FFD002002F00CFD002002F009FD00209B
:1026E00002F006FD002002F003FD002002F000FDD4
:1026F000002002F0FDFC002002F0FAFC002002F0B5
:10270000F7FC002002F0F4FC002002F0F1FCF020C5
:1027100002F0F4FC002002F0EBFC502002F0E8FC98
:10272000002002F0E5FC002002F0E2FC002002F0B4
:10273000DFFCF32002F0E2FC002002F0D9FCF920DB
:1027400002F0DCFC062002F0D3FC102002F0D0FCEA
:10275000292002F0CDFC002002F0CAFC3A2002F051
:10276000CDFC552002F0C4FC112002F0C7FC64200F
:1027700005F090F9292002F0C1FC352002F0BEFCE2
:10278000002002F0B5FC512002F0B8FCFF2002F05E
:10279000AFFC532002F0B2FC2C2002F0A9FC552023
:1027A00002F0ACFC822002F0A3FC2C2002F0A6FC7C
:1027B00002F0E6B8FE48808845F2105188427DD18B
:1027C00055214FF4704002F0A9FCAA214FF20100FC
:1027D00002F0A4FC52214FF2020002F09FFC0821FB
:1027E0004FF2030002F09AFC01214FF2040002F0C4
:1027F00095FC0D214FF4304002F090FC0D214BF27E
:10280000010002F08BFC0D214BF2020002F086FC6D
:1028100034214FF4364002F081FC34214BF2016048
:1028200002F07CFC34214BF2026002F077FC0D21B7
:102830004FF4314002F072FC0D214BF2011002F016
:102840006DFC0D214BF2021002F068FC34214FF4B4
:10285000374002F063FC34214BF2017002F05EFC61
:1028600034214BF2027002F059FC00214FF4324047
:1028700002F054FC00214BF2012002F04FFC002139
:102880004BF2022002F04AFC24214FF4384002F0BF
:1028900045FC24214BF6010002F040FC24214BF6BC
:1028A000020002F03BFC01214FF43F4002F036FCF5
:1028B0000F214FF4334002F031FC00E0FDE30F2123
:1028C0004BF2013002F02AFC0F214BF2023002F0F1
:1028D00025FC34214FF4394002F020FC34214BF622
:1028E000011002F01BFC34214BF6021002F016FC22
:1028F00008214FF4354002F011FC08214BF2015041
:1029000002F00CFC08214BF2025002F007FC0321FC
:102910004FF4424002F002FC24214FF43A4002F00E
:10292000FDFB24214BF6012002F0F8FB24214BF69D
:10293000022002F0F3FB00214FF43C4002F0EEFBDA
:1029400078214BF6014002F0E9FB00214BF60240F2
:1029500002F0E4FB00214FF43D4002F0DFFB782160
:102960004BF6015002F0DAFB00214BF6025002F068
:10297000D5FB00214FF43E4002F0D0FB64214BF622
:10298000016002F0CBFB00214FF4514002F0C6FB86
:1029900033214DF2011002F0C1FB00214DF2021073
:1029A00002F0BCFB34214DF2031002F0B7FB002112
:1029B0004DF2041002F0B2FB3A214DF2051002F084
:1029C000ADFB00214DF2061002F0A8FB4A214DF2AA
:1029D000071002F0A3FB00214DF2081002F09EFB4D
:1029E0005C214DF2091002F099FB00214DF20A1012
:1029F00002F094FB81214DF20B1002F08FFB0021BD
:102A00004DF20C1002F08AFBA6214DF20D1002F0DF
:102A100085FB00214DF20E1002F080FBE5214DF206
:102A20000F1002F07BFB01214DF2101002F076FB3B
:102A300013214DF2111002F071FB01214DF2121021
:102A400002F06CFB54214DF2131002F067FB0121E0
:102A50004DF2141002F062FB82214DF2151002F0CB
:102A60005DFB01214DF2161002F058FBCA214DF218
:102A7000171002F053FB02214DF2181002F04EFB2A
:102A800000214DF2191002F049FB02214DF21A10FB
:102A900002F044FB01214DF21B1002F03FFB02212A
:102AA0004DF21C1002F03AFB34214DF21D1002F0E1
:102AB00035FB02214DF21E1002F030FB67214DF272
:102AC0001F1002F02BFB02214DF2201002F026FB1A
:102AD00084214DF2211002F021FB02214DF222103F
:102AE00002F01CFBA4214DF2231002F017FB02217F
:102AF0004DF2241002F012FBB7214DF2251002F026
:102B00000DFB02214DF2261002F008FBCF214DF201
:102B1000271002F003FB02214DF2281002F0FEFA0A
:102B2000DE214DF2291002F0F9FA02214DF22A10AD
:102B300002F0F4FAF2214DF22B1002F0EFFA02212A
:102B40004DF22C1002F0EAFAFE214DF22D1002F0A7
:102B5000E5FA03214DF22E1002F0E0FA10214DF2B9
:102B60002F1002F0DBFA03214DF2301002F0D6FAFA
:102B700033214DF2311002F0D1FA03214DF232101F
:102B800002F0CCFA6D214DF2331002F0C7FA0021A9
:102B90004FF4524002F0C2FA33214DF2012002F00C
:102BA000BDFA00214DF2022002F0B8FA342101E012
:102BB000340200204DF2032002F0B0FA00214DF261
:102BC000042002F0ABFA3A214DF2052002F0A6FAF9
:102BD00000214DF2062002F0A1FA4A214DF2072011
:102BE00002F09CFA00214DF2082002F097FA5C21D5
:102BF0004DF2092002F092FA00214DF20A2002F073
:102C00008DFA81214DF20B2002F088FA00214DF25D
:102C10000C2002F083FAA6214DF20D2002F07EFA7C
:102C200000214DF20E2002F079FAE5214DF20F203D
:102C300002F074FA01214DF2102002F06FFA132114
:102C40004DF2112002F06AFA01214DF2122002F039
:102C500065FA54214DF2132002F060FA01214DF281
:102C6000142002F05BFA82214DF2152002F056FA90
:102C700001214DF2162002F051FACA214DF217201F
:102C800002F04CFA02214DF2182002F047FA00211E
:102C90004DF2192002F042FA02214DF21A2002F000
:102CA0003DFA01214DF21B2002F038FA02214DF2CB
:102CB0001C2002F033FA34214DF21D2002F02EFACE
:102CC00002214DF21E2002F029FA67214DF21F2049
:102CD00002F024FA02214DF2202002F01FFA842192
:102CE0004DF2212002F01AFA02214DF2222002F0C8
:102CF00015FAA4214DF2232002F010FA02214DF220
:102D0000242002F00BFAB7214DF2252002F006FA3A
:102D100002214DF2262002F001FACF214DF22720A8
:102D200002F0FCF902214DF2282002F0F7F9DE2131
:102D30004DF2292002F0F2F902214DF22A2002F090
:102D4000EDF9F2214DF22B2002F0E8F902214DF2CB
:102D50002C2002F0E3F9FE214DF22D2002F0DEF9E5
:102D600003214DF22E2002F0D9F910214DF22F202F
:102D700002F0D4F903214DF2302002F0CFF93321D3
:102D80004DF2312002F0CAF903214DF2322002F057
:102D9000C5F96D214DF2332002F0C0F900214FF446
:102DA000534002F0BBF933214DF2013002F0B6F985
:102DB00000214DF2023002F0B1F934214DF203301E
:102DC00002F0ACF900214DF2043002F0A7F93A21EB
:102DD0004DF2053002F0A2F900214DF2063002F06A
:102DE0009DF94A214DF2073002F098F900214DF289
:102DF000083002F093F95C214DF2093002F08EF9AF
:102E000000214DF20A3002F089F981214DF20B3098
:102E100002F084F900214DF20C3002F07FF9A62176
:102E20004DF20D3002F07AF900214DF20E3002F031
:102E300075F9E5214DF20F3002F070F901214DF2E4
:102E4000103002F06BF913214DF2113002F066F9E7
:102E500001214DF2123002F061F954214DF213308C
:102E600002F05CF901214DF2143002F057F9822191
:102E70004DF2153002F052F901214DF2163002F0F8
:102E80004DF9CA214DF2173002F048F902214DF2F6
:102E9000183002F043F900214DF2193002F03EF9EA
:102EA00002214DF21A3002F039F901214DF21B30A6
:102EB00002F034F902214DF21C3002F02FF93421D6
:102EC0004DF21D3002F02AF902214DF21E3002F0BF
:102ED00025F967214DF21F3002F020F902214DF251
:102EE000203002F01BF984214DF2213002F016F956
:102EF00002214DF2223002F011F9A4214DF22330CB
:102F000002F00CF902214DF2243002F007F9B7214A
:102F10004DF2253002F002F902214DF2263002F086
:102F2000FDF8CF214DF2273002F0F8F802214DF2E2
:102F3000283002F0F3F8DE214DF2293002F0EEF8ED
:102F400002214DF22A3002F0E9F8F2214DF22B3045
:102F500002F0E4F802214DF22C3002F0DFF8FE21FD
:102F60004DF22D3002F0DAF803214DF22E3002F04E
:102F7000D5F810214DF22F3002F0D0F803214DF298
:102F8000303002F0CBF833214DF2313002F0C6F888
:102F900003214DF2323002F0C1F86D214DF2333091
:102FA00002F0BCF800214FF4544002F0B7F833218E
:102FB0004DF2014002F0B2F800214DF2024002F061
:102FC000ADF834214DF2034002F0A8F800214DF293
:102FD000044002F0A3F83A214DF2054002F09EF8B9
:102FE00000214DF2064002F099F84A214DF20740C7
:102FF00002F094F800214DF2084002F08FF85C21B5
:103000004DF2094002F08AF800214DF20A4002F028
:1030100085F881214DF20B4002F080F800214DF23D
:103020000C4002F07BF8A6214DF20D4002F076F83C
:1030300000214DF20E4002F071F8E5214DF20F40F3
:1030400002F06CF801214DF2104002F067F81321F4
:103050004DF2114002F062F801214DF2124002F0EF
:103060005DF854214DF2134002F058F801214DF261
:10307000144002F053F882214DF2154002F04EF850
:1030800001214DF2164002F049F8CA214DF21740D5
:1030900002F044F802214DF2184002F03FF80021FE
:1030A0004DF2194002F03AF802214DF21A4002F0B6
:1030B00035F801214DF21B4000E006E302F02EF846
:1030C00002214DF21C4002F029F834214DF21D403E
:1030D00002F024F802214DF21E4002F01FF8672191
:1030E0004DF21F4002F01AF802214DF2204002F08A
:1030F00015F884214DF2214002F010F802214DF222
:10310000224002F00BF8A4214DF2234002F006F811
:1031100002214DF2244002F001F8B7214DF2254082
:1031200001F0FCFF02214DF2264001F0F7FFCF2114
:103130004DF2274001F0F2FF02214DF2284001F04C
:10314000EDFFDE214DF2294001F0E8FF02214DF2B2
:103150002A4001F0E3FFF2214DF22B4001F0DEFFA7
:1031600002214DF22C4001F0D9FFFE214DF22D40FD
:1031700001F0D4FF03214DF22E4001F0CFFF1021CA
:103180004DF22F4001F0CAFF03214DF2304001F013
:10319000C5FF33214DF2314001F0C0FF03214DF254
:1031A000324001F0BBFF6D214DF2334001F0B6FF1C
:1031B00000214FF4554001F0B1FF33214DF2015091
:1031C00001F0ACFF00214DF2025001F0A7FF3421C5
:1031D0004DF2035001F0A2FF00214DF2045001F026
:1031E0009DFF3A214DF2055001F098FF00214DF26C
:1031F000065001F093FF4A214DF2075001F08EFF77
:1032000000214DF2085001F089FF5C214DF2095078
:1032100001F084FF00214DF20A5001F07FFF81216F
:103220004DF20B5001F07AFF00214DF20C5001F0ED
:1032300075FFA6214DF20D5001F070FF00214DF2F7
:103240000E5001F06BFFE5214DF20F5001F066FFCB
:1032500001214DF2105001F061FF13214DF2115088
:1032600001F05CFF01214DF2125001F057FF542193
:103270004DF2135001F052FF01214DF2145001F0B4
:103280004DFF82214DF2155001F048FF01214DF212
:10329000165001F043FFCA214DF2175001F03EFFD6
:1032A00002214DF2185001F039FF00214DF2195062
:1032B00001F034FF02214DF21A5001F02FFF0121DD
:1032C0004DF21B5001F02AFF02214DF21C5001F07B
:1032D00025FF34214DF21D5001F020FF02214DF257
:1032E0001E5001F01BFF67214DF21F5001F016FF29
:1032F00002214DF2205001F011FF84214DF22150A6
:1033000001F00CFF02214DF2225001F007FFA42131
:103310004DF2235001F002FF02214DF2245001F042
:10332000FDFEB7214DF2255001F0F8FE02214DF2CD
:10333000265001F0F3FECF214DF2275001F0EEFEB2
:1033400002214DF2285001F0E9FEDE214DF2295014
:1033500001F0E4FE02214DF22A5001F0DFFEF221DD
:103360004DF22B5001F0DAFE02214DF22C5001F00B
:10337000D5FEFE214DF22D5001F0D0FE03214DF27D
:103380002E5001F0CBFE10214DF22F5001F0C6FE61
:1033900003214DF2305001F0C1FE33214DF2315086
:1033A00001F0BCFE03214DF2325001F0B7FE6D2159
:1033B0004DF2335001F0B2FE00214FF4564001F0BF
:1033C000ADFE33214DF2016001F0A8FE00214DF267
:1033D000026001F0A3FE34214DF2036001F09EFE75
:1033E00000214DF2046001F099FE3A214DF2056092
:1033F00001F094FE00214DF2066001F08FFE4A219B
:103400004DF2076001F08AFE00214DF2086001F0E4
:1034100085FE5C214DF2096001F080FE00214DF235
:103420000A6001F07BFE81214DF20B6001F076FE17
:1034300000214DF20C6001F071FEA6214DF20D60ED
:1034400001F06CFE00214DF20E6001F067FEE521F7
:103450004DF20F6001F062FE01214DF2106001F0AB
:103460005DFE13214DF2116001F058FE01214DF275
:10347000126001F053FE54214DF2136001F04EFE34
:1034800001214DF2146001F049FE82214DF21560D8
:1034900001F044FE01214DF2166001F03FFECA2109
:1034A0004DF2176001F03AFE02214DF2186001F072
:1034B00035FE00214DF2196001F030FE02214DF27F
:1034C0001A6001F02BFE01214DF21B6001F026FE77
:1034D00002214DF21C6001F021FE34214DF21D60ED
:1034E00001F01CFE02214DF21E6001F017FE672163
:1034F0004DF21F6001F012FE02214DF2206001F03A
:103500000DFE84214DF2216001F008FE02214DF2F2
:10351000226001F003FEA4214DF2236001F0FEFDC4
:1035200002214DF2246001F0F9FDB7214DF2256032
:1035300001F0F4FD02214DF2266001F0EFFDCF21F4
:103540004DF2276001F0EAFD02214DF2286001F002
:10355000E5FDDE214DF2296001F0E0FD02214DF292
:103560002A6001F0DBFDF2214DF22B6001F0D6FD67
:1035700002214DF22C6001F0D1FDFE214DF22D60B3
:1035800001F0CCFD03214DF22E6001F0C7FD1021AA
:103590004DF22F6001F0C2FD03214DF2306001F0C9
:1035A000BDFD33214DF2316001F0B8FD03214DF234
:1035B000326001F0B3FD6D214DF2336001F0AEFDDC
:1035C00055214FF4704001F0A9FDAA214FF20100EE
:1035D00001F0A4FD52214FF2020001F09FFD0821ED
:1035E0004FF2030001F09AFD00214FF2040001F0B8
:1035F00095FDCC214FF4314001F090FD00214BF2BC
:10360000011001F08BFD05214FF4364001F086FDDD
:1036100070214FF4374001F081FD70214BF20170B1
:1036200001F07CFD01214FF4384001F077FD0321CA
:103630004BF6010001F072FD03214BF6020001F090
:103640006DFD03214BF6030001F068FD02214FF4EC
:103650003C4001F063FD00214BF6014001F05EFDAE
:1036600000214BF6024001F059FDD0214FF44940B2
:1036700001F054FD02214CF6011001F04FFD5021E4
:103680004CF6021001F04AFD50214CF6031001F0F7
:1036900045FD50214CF6041001F040FD00214FF48F
:1036A000545001F03BFD55214FF4685001F036FDB8
:1036B0004FF4885001F022FD782004F011FA4FF405
:1036C000245001F01BFD01F05BB9FE48808849F2EF
:1036D000253188427ED147F6F001E52001F01EFD3C
:1036E0004FF48071012001F019FD4FF4E0610220D8
:1036F00001F014FD41F23001032001F00FFD002123
:10370000042001F00BFD40F20221082001F006FD2B
:103710000021092001F002FD00210A2001F0FEFC39
:1037200000210C2001F0FAFC00210D2001F0F6FC34
:1037300000210F2001F0F2FC0021102001F0EEFC2E
:103740000721112001F0EAFC0021122001F0E6FC23
:103750000021132001F0E2FC0021072001F0DEFC33
:1037600041F29061102001F0D9FC40F22721112094
:1037700001F0D4FC9D21122001F0D0FC4FF4C8517F
:10378000132001F0CBFC2521292001F0C7FC0D21DD
:103790002B2001F0C3FC0721302001F0BFFC40F2D8
:1037A0000331312001F0BAFC0321322001F0B6FCD4
:1037B00040F20621352001F0B1FC0821362001F04D
:1037C000ADFC40F20641372001F0A8FC4FF44171F6
:1037D000382000E057E001F0A1FC0721392001F07A
:1037E0009DFC40F202613C2001F098FC08213D2044
:1037F00001F094FC0021502001F090FCEF215120B9
:1038000001F08CFC0021522001F088FC40F23F11B5
:10381000532001F083FC4FF42741602001F07EFC2F
:103820000121612001F07AFC00216A2001F076FC80
:103830000021802001F072FC0021812001F06EFC4B
:103840000021822001F06AFC0021832001F066FC47
:103850000021842001F062FC0021852001F05EFC43
:103860001021902001F05AFC4FF4C061922001F029
:1038700055FC40F23311072001F050FC22210020BA
:1038800001F04CFC1FE78F48808849F228318842BC
:103890007ED141F28F01EC2001F040FC41F2342155
:1038A000EF2001F03BFC4FF48071012001F036FC69
:1038B0004FF4E061022001F031FC41F230010320BD
:1038C00001F02CFC0021042001F028FC40F2022130
:1038D000082001F023FC0021092001F01FFC002139
:1038E0000A2001F01BFC01210C2001F017FC002133
:1038F0000D2001F013FC00210F2001F00FFC00212E
:10390000102001F00BFC0721112001F007FC002121
:10391000122001F003FC0021132001F0FFFB012124
:10392000072001F0FBFB322004F0B4F841F2904193
:10393000102001F0F3FB40F22721112001F0EEFBF3
:10394000322004F0A7F88A21122001F0E7FB322090
:1039500004F0A0F84FF4D051132001F0DFFB062152
:10396000292001F0DBFB0D212B2001F0D7FB3220B9
:1039700004F090F80021202001F0D0FB002121204C
:1039800001F0CCFB322004F085F80021302000E06B
:1039900074E001F0C3FB40F20461312001F0BEFB92
:1039A00040F20531322001F0B9FB0021352001F051
:1039B000B5FB40F60941362001F0B0FB4FF4017130
:1039C000372001F0ABFB40F20131382001F0A6FBBB
:1039D00040F20771392001F0A1FB00213C2001F0E9
:1039E0009DFB40F60A213D2001F098FB322004F0B7
:1039F00051F80021502001F091FBEF21512001F0FE
:103A00008DFB0021522001F089FB40F23F11532031
:103A100001F084FB4FF42741602001F07FFB01217E
:103A2000612001F07BFB00216A2001F077FB00217F
:103A3000802001F073FB0021812001F06FFB002149
:103A4000822001F06BFB0021832001F067FB002145
:103A5000842001F063FB0021852001F05FFB102131
:103A6000902001F05BFB4FF4C061922001F056FB07
:103A700040F23311072001F051FB24E61148808801
:103A800049F2203188427DD10021084601F046FBF1
:103A90004FF48071012001F041FB4FF4E0610220FE
:103AA00001F03CFB41F23001032001F037FB002123
:103AB000042001F033FB40F20221082001F02EFB2C
:103AC000002101E034020020092001F027FB002141
:103AD0000A2001F023FB01210C2001F01FFB002133
:103AE0000D2001F01BFB00210F2001F017FB3220FD
:103AF00003F0D0FF40F20111072001F00FFB32204C
:103B000003F0C8FF4FF48651102001F007FB072196
:103B1000112001F003FB4FF48871122001F0FEFA2E
:103B20004FF43061132001F0F9FA0021292001F04F
:103B3000F5FA44F210012B2001F0F0FA0021502098
:103B400001F0ECFAEF21512001F0E8FA00215220B7
:103B500001F0E4FA40F23F11532001F0DFFA4FF494
:103B60001C51602001F0DAFA0121612001F0D6FA3F
:103B700000216A2001F0D2FA0021802001F0CEFA63
:103B8000002100E031E0812001F0C8FA002182200C
:103B900001F0C4FA0021832001F0C0FA0021842042
:103BA00001F0BCFA0021852001F0B8FA1021902024
:103BB00001F0B4FA0021922001F0B0FA0121932023
:103BC00001F0ACFA4FF48871952001F0A7FA0021BA
:103BD000972001F0A3FA0021982001F09FFA40F20B
:103BE0007311072001F09AFA6DE5FE48808849F2CA
:103BF000313188427DD141F21401E72001F08EFA83
:103C00004FF48071012001F089FA4FF40071022015
:103C100001F084FA41F23801032001F07FFA40F20A
:103C20000221082001F07AFA0021092001F076FA39
:103C300000210A2001F072FA00210C2001F06EFA36
:103C400000210D2001F06AFA00210F2001F066FA30
:103C50000021102001F062FA0721112001F05EFA24
:103C60000021122001F05AFA0021132001F056FA27
:103C7000C82003F00FFF41F29061102001F04EFACE
:103C800040F22721112001F049FA322003F002FF0F
:103C90000C21122001F042FA322003F0FBFE4FF417
:103CA0000061132001F03AFA1121292001F036FABF
:103CB0000B212B2001F032FA322003F0EBFE002121
:103CC000202001F02BFA40F23F11212001F026FACA
:103CD0000021302001F022FA4FF48371312001F0ED
:103CE0001DFA0021322001F019FA4FF4017135203C
:103CF00000E064E001F012FA41F20A61362001F0BE
:103D00000DFA40F20771372001F008FA4FF4837181
:103D1000382001F003FA40F20771392001F0FEF972
:103D200040F202413C2001F0F9F940F60F413D20FC
:103D300001F0F4F90021502001F0F0F9EF215120B9
:103D400001F0ECF90021522001F0E8F940F23F11B6
:103D5000532001F0E3F94FF41C51602001F0DEF92B
:103D60000121612001F0DAF900216A2001F0D6F981
:103D70000021802001F0D2F90021812001F0CEF94C
:103D80000021822001F0CAF90021832001F0C6F948
:103D90000021842001F0C2F90021852001F0BEF944
:103DA0001021902001F0BAF94FF4C061922001F087
:103DB000B5F940F23311072001F0B0F983E48948E6
:103DC000808845F2084188427ED14FF480710120FD
:103DD00001F0A4F94FF4E061022001F09FF941F2F3
:103DE0003001032001F09AF90021042001F096F936
:103DF00040F20721082001F091F90021092001F08B
:103E00008DF900210A2001F089F900210C2001F030
:103E100085F900210D2001F081F900210F2001F02A
:103E20007DF9142003F036FE41F2B061102001F05C
:103E300075F90121112001F071F90121172001F01C
:103E40006DF94FF49C71122001F068F94FF4006194
:103E5000132001F063F90921292001F05FF90921FC
:103E60002A2001F05BF90021A42001F057F900217C
:103E7000502001F053F9EF21512001F04FF90021BA
:103E8000522001F04BF940F23F11532001F046F966
:103E90004FF41C51602001F041F90121612001F033
:103EA0003DF900216A2001F039F90021802001F05C
:103EB00035F90021812001F031F90021822001F043
:103EC0002DF90021832000E023E001F027F90021F3
:103ED000842001F023F90021852001F01FF913212E
:103EE000902001F01BF90021922001F017F9032125
:103EF000932001F013F94FF48871952001F00EF929
:103F000040F27311072001F009F9322003F0C2FDDD
:103F1000B8E43448808841F2055188427ED10021BE
:103F2000072001F0FBF8322003F0B4FD4FF48E714E
:103F3000122001F0F3F80121A42001F0EFF80F2185
:103F4000082001F0EBF808210A2001F0E7F8082129
:103F50000D2001F0E3F840F20771302001F0DEF8A7
:103F60000721312001F0DAF840F20361322001F03C
:103F7000D5F84FF4E061332001F0D0F840F202218F
:103F8000342001F0CBF80221352001F0C7F841F6CA
:103F90000F71362001F0C2F840F20771372001F0AE
:103FA000BDF80021382001F0B9F80021392001F0D6
:103FB000B5F840F207713A2001F0B0F800213B203B
:103FC00001F0ACF807213C2001F0A8F800213D20C9
:103FD00001F0A4F8322003F05DFD0121072001F07B
:103FE0009DF801E0340200200121172001F096F82D
:103FF000322003F04FFD4FF4BD51102001F08EF838
:1040000040F21721112001F089F84FF48F7112202E
:1040100001F084F84FF47061132000E097E001F0A4
:104020007DF800212A2001F079F80A21292001F0E9
:1040300075F84FF49F71122001F070F800215020A4
:1040400001F06CF8EF21512001F068F800215220B6
:1040500001F064F840F23F11532001F05FF84FF493
:104060001C51602001F05AF80121612001F056F83E
:1040700000216A2001F052F80021802001F04EF862
:104080000021812001F04AF80021822001F046F849
:104090000021832001F042F80021842001F03EF845
:1040A0000021852001F03AF81321902001F036F824
:1040B0004FF44071922001F031F80521932001F076
:1040C0002DF80021952001F029F80021972001F01A
:1040D00025F80021982001F021F84FF4807101208B
:1040E00001F01CF84FF4E061022001F017F841F2F2
:1040F0003801032001F012F80021042001F00EF82D
:1041000000210C2001F00AF800210F2001F006F830
:104110000021202001F002F80021212000F0FEFF04
:104120002121072000F0FAFF142003F0B3FC6121E5
:10413000072000F0F3FF142003F0ACFC40F27311F1
:10414000072000F0EBFF142003F0A4FC95E4FE48E8
:1041500080884BF2055188427ED10021084600F04C
:10416000DDFF0021084600F0D9FF0021084600F0DD
:10417000D5FF0021084600F0D1FF0121A42000F066
:10418000CDFF142003F086FC4FF41C51602000F09A
:10419000C5FF40F20221082000F0C0FF4FF4057176
:1041A000302000F0BBFF43F21571312000F0B6FF64
:1041B00040F20461322000F0B1FF40F61661332076
:1041C00000F0ACFF42F21121342000F0A7FF4FF4C1
:1041D000A851352000F0A2FF48F20751362000F028
:1041E0009DFF41F20741372000F098FF41F2034163
:1041F000382000F093FF2021392000F08FFF1A2192
:10420000902000F08BFF0021102000F087FF072195
:10421000112000F083FF0021122000F07FFF002119
:10422000132000F07BFF142003F034FC4FF4E66110
:10423000102000F073FF40F23711112000F06EFFE4
:10424000142003F027FC4FF4DC71122000F066FF0D
:10425000142003F01FFC00E083E04FF47061132092
:1042600000F05CFF80212A2000F058FF482129201F
:1042700000F054FF142003F00DFC4FF48071012076
:1042800000F04CFF4FF4E061022000F047FF41F2E4
:104290003801032000F042FF40F20221082000F024
:1042A0003DFF00210A2000F039FF00210C2000F022
:1042B00035FF00210D2000F031FF30210E2000F0ED
:1042C0002DFF0021502000F029FFEF21512000F0A8
:1042D00025FF0021522000F021FF40F23F11532022
:1042E00000F01CFF4FF41C51602000F017FF01216B
:1042F000612000F013FF00216A2000F00FFF112160
:10430000902000F00BFF4FF4C061922000F006FFF8
:1043100040F20241932000F001FF0221942000F0BE
:10432000FDFE142003F0B6FB0121072000F0F6FE8D
:10433000142003F0AFFB6121072000F0EFFE40F2F4
:104340007311072000F0EAFE0021202000F0E6FEB5
:104350000021212000F0E2FE2221002000F0DEFEFC
:104360000EE3794880884CF2055188427ED10021C5
:10437000084600F0D3FE0021084600F0CFFE1420CE
:1043800003F088FB0021084600F0C8FE0021084623
:1043900000F0C4FE0021084600F0C0FE00210846DF
:1043A00000F0BCFE0121A42000F0B8FE142003F0B0
:1043B00071FB4FF41C51602000F0B0FE40F6060186
:1043C000082000F0ABFE40F20371302000F0A6FEA2
:1043D0000121312000F0A2FE0421322000F09EFED7
:1043E0004FF48171332000F099FE4FF44071342076
:1043F00000F094FE40F20311352000F08FFE1F21E3
:10440000362000F08BFE40F20371372000F086FE6C
:104410000121382000F082FE0421392000F07EFEC8
:104420001521902000F07AFE4FF48261102000F0F8
:1044300075FE40F24721112000F070FE4FF4DE714E
:10444000122000F06BFE4FF46061132000F066FE56
:10445000782003F01FFB4FF48071012000F05EFE16
:104460004FF40071022000F059FE00E050E041F2EC
:104470003001032000F052FE08210A2000F04EFE19
:1044800000210C2000F04AFE20210E2000F046FE04
:1044900000210F2000F042FE0021202000F03EFE0F
:1044A0000021212000F03AFE3D212A2000F036FEB6
:1044B000142003F0EFFA2D21292000F02FFE002117
:1044C000502000F02BFE4DF2EF01512000F026FEAF
:1044D0000021522000F022FE40F23F11532000F054
:1044E0001DFE0021612000F019FE00216A2000F06D
:1044F00015FE4FF44071922000F010FE052193202C
:1045000000F00CFE4FF48071072000F007FE37E248
:104510000D48808844F2315188427CD1012100202D
:1045200000F0FCFD0A2003F0B5FA41F228611020EA
:1045300000F0F4FD0E21122000F0F0FD40F63921CC
:10454000132000F0EBFD01E0340200200A2003F00C
:10455000A1FA4021112000F0E1FD5021152000F0CA
:10456000DDFD0A2003F096FA1E21122000F0D6FD90
:104570000A2003F08FFA4FF4B151102000F0CEFD65
:1045800042F63921132000F0C9FD0A2003F082FA17
:104590004FF48071012000F0C1FD4FF44071022002
:1045A00000F0BCFD41F23801032000F0B7FD40F2FD
:1045B0000221082000F0B2FD08210A2000F0AEFD23
:1045C0000021302000F0AAFD40F20241312000F02D
:1045D000A5FD4FF48371322000F0A0FD40F203519D
:1045E000332000F09BFD4FF48271342000F096FDE3
:1045F00040F20131352000F091FD40F20771362084
:1046000000F08CFD40F20531372000F087FD4FF4BB
:104610000271382000E040E000F080FD40F60B71B0
:10462000392000F07BFD0221412000F077FD4FF49E
:104630001C51602000F072FD0121612000F06EFD30
:104640004FF40471902000F069FD4FF485719220C1
:1046500000F064FD0421932000F060FD4FF48071B0
:10466000A02000F05BFD0121072000F057FD212173
:10467000072000F053FD2321072000F04FFD3321D8
:10468000072000F04BFD40F23311072000F046FDFB
:104690000021A02000F042FD72E1BF48808844F272
:1046A000355188427ED13021152000F037FD102190
:1046B0009A2000F033FD2021112000F02FFD43F25D
:1046C0002841102000F02AFD0221122000F026FDD2
:1046D00041F23801132000F021FD282003F0DAF91F
:1046E0001221084600F01AFD282003F0D3F943F206
:1046F0002041102000F012FD43F23801132000F099
:104700000DFD462003F0C6F90021302000F006FD23
:1047100040F20241312000F001FD40F20731322029
:1047200000F0FCFC4FF44171332000F0F7FC042151
:10473000342000F0F3FC40F20141352000F0EEFCA3
:1047400040F20771362000F0E9FC40F205313720D5
:1047500000F0E4FC4FF4C261382000F0DFFC4FF4BD
:10476000C261392000F0DAFC4FF48071012000F0C2
:10477000D5FC4FF44071022000F0D0FC41F2300132
:10478000032000F0CBFC40F60801082000F0C6FC36
:1047900008210A2000F0C2FC4FF41C51602000F0F8
:1047A000BDFC00E031E00121612000F0B7FC4FF4D6
:1047B0009F71902000F0B2FC4FF48071922000F0C5
:1047C000ADFC4FF48071932000F0A8FC4FF44051F1
:1047D000A02000F0A3FC1021A32000F09FFC0121E9
:1047E000072000F09BFC2121072000F097FC2321EB
:1047F000072000F093FC3321072000F08FFC40F2EB
:104800003311072000F08AFCBAE06348808841F643
:1048100063118842F8D1E22000F070FC232000F000
:1048200067FC022000F064FC042000F061FC6420BE
:1048300003F056F9E02000F061FC012000F058FC84
:104840000A2003F027F9E02000F058FC032000F0D4
:104850004FFC0C2003F01EF9012000F04FFC0A2051
:1048600003F018F9E62000F049FC032000F040FCBA
:10487000FF2000F03DFCFF2000F03AFCB02000F0EB
:104880003DFC202000F034FC002000F031FC03202F
:1048900000F02EFC40F21F3000F02AFC012000F056
:1048A00027FC40F2DF1000F023FC002000F020FC89
:1048B000B42000F023FC042000F01AFC40F21F405A
:1048C00000F016FC002000F013FCD22000F010FCD9
:1048D000002000F00DFC002000F00AFC002000F099
:1048E00007FC002000F004FCB62000F007FC0220CA
:1048F00000F0FEFB4FF4037000F0FAFB002000F024
:10490000F7FB222000F0F4FB092000F0F1FB00206F
:1049100000F0EEFB002000F0EBFBF02000F0EEFBDF
:10492000032000F0E5FB292000F0E8FBD02000F098
:10493000E5FB002000F0DCFBBE2000F0DFFB0520E3
:1049400000F0D6FBFE2000F0D3FB012000F0D0FBEE
:10495000FF2000F0CDFB002000F0CAFBB82000F0E3
:10496000CDFB0F2000F0C4FB012000F0C1FBBA20FA
:1049700000F0C4FB012000F0BBFB642000F032F823
:104980000020FCF75BFA0120044908604FF6FF7035
:10499000FCF71EFA1FB000BD3402002080812142C6
:1049A00010B50246012000E050430B00A1F10104C4
:1049B000E1B2F9D110BD000008B5034800880090AD
:1049C000BDF8000008BD00000008006C10B50446EA
:1049D000204600F093FB052003F082F8FFF7ECFF80
:1049E00010BD00002DE9F0470446BE2000F086FB14
:1049F000052000F07DFB204607F08EFC07464FF0B7
:104A000066320C4B07F09CFC054607F041FC1FFA90
:104A100080F9484600F06CFB012000F069FBFF20A4
:104A200000F066FB002000F063FB002000F060FB5C
:104A3000BDE8F0876666044070B504460023002692
:104A4000B748807901280BD1B548808846F6040123
:104A5000884205D0B248808841F66311884208D167
:104A6000AF488079F0B9AE48808841F6631188423A
:104A700018D1082C15D2DFE804F00406080A0C0E41
:104A8000101206240DE007240BE0042409E005249D
:104A900007E0012405E0002403E0032401E00224F0
:104AA00000BF00BF9E48808849F24131884217D03C
:104AB0009B48808846F60401884211D09848808837
:104AC00045F2103188420BD09548808845F210514C
:104AD000884205D09248808841F6631188427DD192
:104AE000082C1CD2DFE804F00406090C0F1215187C
:104AF00000BF14E043F0800311E043F040030EE0F8
:104B000043F0C0030BE043F0200308E043F06003F0
:104B100005E043F0A00302E043F0E00300BF00BF64
:104B20007F48808845F21051884202D14FF4585690
:104B300000E036267A48808845F2103188420DD050
:104B40007748808845F21051884207D074488088A1
:104B500041F66311884201D043F008037048808811
:104B600046F60401884201D143F00203194630465B
:104B700000F0D4FA6A48808841F6631188421DD05B
:104B800003F0200068B1664800886549498888427A
:104B900014DA6348058840886149088008464580E2
:104BA0000CE05F4800885E494988884206DD5C4821
:104BB000058840885A4908800846458058488088BA
:104BC00045F21051884254D15549488900F096FA6F
:104BD000002000F08DFA5249498900E078E0491C34
:104BE00088B200F08BFA002000F082FA4C49498923
:104BF000891C88B200F082FA49490988491EC1F32C
:104C00000F2000F075FA46494989C91C88B200F0A6
:104C100075FA43490978491EC8B200F069FA40495B
:104C2000888900F06BFA002000F062FA3C4989891B
:104C3000491C88B200F062FA002000F059FA3849A5
:104C40008989891C88B200F059FA35494988491E7A
:104C5000C1F30F2000F04CFA31498989C91C88B290
:104C600000F04CFA2E498978491EC8B200F040FA8B
:104C700055E02B49488900F041FA002000F038FA4D
:104C8000002000F035FA26490988491EC1F30F209B
:104C900000F02EFA22490978491EC8B200F028FA1D
:104CA0001F49888900F02AFA002000F021FA00202C
:104CB00000F01EFA1A494988491EC1F30F2000F07E
:104CC00017FA17498978491EC8B200F011FA26E090
:104CD000082C1CD2DFE804F004070A0D0F12151887
:104CE00043F0300313E043F0100310E043F02003DF
:104CF0000DE000BF0BE043F0380308E043F0280369
:104D000005E043F0180302E043F0080300BF00BFD2
:104D1000032643F480531946304600F0FFF970BD76
:104D20003402002010B503460C466748808849F2DB
:104D30004131884205D06448808845F2103188426C
:104D400014D16149488900F0D9F9181200F0D0F95E
:104D5000D8B200F0CDF95C49888900F0CFF9201273
:104D600000F0C6F9E0B200F0C3F9ABE05648808825
:104D700046F6040188421DD153488079012804D1A8
:104D800051480088401EC01A83B24F49488900F03C
:104D9000B5F9181200F0ACF9D8B200F0A9F94A49F7
:104DA000888900F0ABF9201200F0A2F9E0B200F01F
:104DB0009FF987E04448808841F66311884247D1D3
:104DC00041488079A8B940480088401EC01A83B283
:104DD0003D49488900F092F9002000F089F900204F
:104DE00000F086F9181200F083F9D8B200F080F9CB
:104DF00016E03549488900F081F9181200F078F979
:104E0000D8B200F075F930490988491EC1F30F2066
:104E100000F06EF92C490978491EC8B200F068F913
:104E20002949888900F06AF9201200F061F9E0B29E
:104E300000F05EF924494988491EC1F30F2000F0B3
:104E400057F921498978491EC8B200F051F939E073
:104E50001D48808845F21051884220D11A4948895E
:104E600000F04CF9181200F043F917494989491C20
:104E700088B200F043F9D8B200F03AF912498889B3
:104E800000F03CF9201200F033F90F498989491CE0
:104E900088B200F033F9E0B200F02AF912E00A48D3
:104EA0008079012804D108480088401EC01A83B2C6
:104EB00005494889194600F031F903498889214696
:104EC00000F02CF910BD0000340200202DE9F84F4D
:104ED00080460E4617461C46B3462046E31704EBB1
:104EE0005373DB1021464FEAE47C04EB5C7C4FEA11
:104EF000EC0CA4EBCC0CBCF1000F02D04FF0010C79
:104F000001E04FF0000C6344224604EBD27C4FEAF0
:104F10006C0C03FB0CF3DBB20093A7F12000C7B2CB
:104F2000002556E00C2C07D107EB47002B4901EB7D
:104F3000800010F8059013E0102C05D1284800EBF4
:104F4000071010F805900BE0182C07D107EBC700ED
:104F5000244901EB800010F8059001E0BDE8F88FCE
:104F60004FF0000A2FE009F0800030B11E4802889F
:104F700031464046FCF742F807E00A9828B91B483A
:104F8000028831464046FCF739F84FEA49604FEA5B
:104F90001069701C86B216484088B04200DCDDE71C
:104FA000A6EB0B00A0420AD15E4608F101001FFAF1
:104FB00080F80F480088404500DCCFE706E00AF1A2
:104FC000010000F0FF0ABAF1080FCCDB00BF681C3B
:104FD000C5B200988542A5DB00BFBFE722D100081B
:104FE00096D5000886DB00082E0000203000002047
:104FF000340200202DE9FF4F81B0074691461E463E
:105000000E9D4FF0000A002439E0301B401EC1B253
:105010000A20FFF7C5FCB9FBF0F00A21B0FBF1F262
:1050200001FB1208BAF1000F16D1701EA04213DD69
:10503000B8F1000F0ED10020AB4605EBDB71491033
:1050400001FB0471009088B22B4620220299FFF7E1
:105050003DFF12E04FF0010A0020AB4605EBDB718B
:10506000491001FB0471009088B208F13001CAB206
:105070002B460299FFF72AFF00BF601CC4B2B4425E
:10508000C3DB05B0BDE8F08F2DE9F84704460D46B7
:1050900090469946DDE9096704F0FF0A08EB040031
:1050A0001FFA80F809EB05001FFA80F916E0444565
:1050B00002DB5446A81985B24D4500DB14E0002000
:1050C00000903A78334629462046FFF7FFFE3046E7
:1050D00006EBD07104EB61018CB27F1C38787E281E
:1050E00002DC38782028E2DA00BFBDE8F88700004B
:1050F00001490880704700000008006C01490880E1
:1051000070470000FE07006C0248008902490880D1
:105110007047000034020020FE07006C024A108035
:10512000921C118070470000FE07006C08B5012139
:10513000482001F059FA2020ADF8000010208DF829
:10514000030003208DF8020069460948FBF7EFFCD5
:1051500020210748FBF7C7FD2020ADF80000694675
:105160000448FBF7E4FC20210248FBF7BCFD08BD26
:10517000000C0140001801402DE9FC4104460D4699
:1051800016466B4606223B21682000F042FA07468D
:10519000BFB99DF801009DF8001040EA012000B25F
:1051A00020809DF803009DF8021040EA012000B223
:1051B00028809DF805009DF8041040EA012000B207
:1051C00030803846BDE8FC812DE9FC4104460D469F
:1051D00016466B4606224321682000F01AFA07465D
:1051E000BFB99DF801009DF8001040EA012000B20F
:1051F00020809DF803009DF8021040EA012000B2D3
:1052000028809DF805009DF8041040EA012000B2B6
:1052100030803846BDE8FC812DE9F84F6B4602220C
:105220004121682000F0F5F99DF801009DF800107B
:1052300040EA01200FFA80FA504607F056F88046FF
:1052400000220B4B06F0CCFE06460A4A0A4B06F03B
:1052500017FE044606F0E2FD83460849584607F06B
:1052600075FD044607F0D6FC00B2BDE8F88F0000DB
:1052700000407540A4703D0AD74342400000C84238
:1052800010B500200E4908600E48006820F47040F8
:105290000C4908600846006840F44050086000204F
:1052A0000949C1F8AC0100F011F801200449086077
:1052B00000F00CF800200449C1F8A80110BD00005E
:1052C000A8812142040C01400080214210B5022037
:1052D00002F006FC10BD000008B50121082001F015
:1052E00083F94FF44060ADF8000010208DF8030002
:1052F00003208DF8020069460448FBF718FC4FF4C0
:1053000040610248FBF7EFFC08BD0000000C0140C3
:1053100010B500200E4908600E48006820F4704067
:105320000C4908600846006840F4405008600120BD
:105330000949C1F8AC01FFF7C9FF01200449086021
:10534000FFF7C4FF00200449C1F8A80110BD000008
:10535000A8812142040C01400080214270B505461D
:1053600000241648006820F470401449086008467C
:10537000006840F400400860002614E00020104956
:105380000860FFF7A3FF01200E49C1F8A8016006DD
:10539000040E0B487C38006808B1601CC4B2FFF7EB
:1053A00095FF701CC6B2082EE8DB15B9FFF7B0FFF9
:1053B00001E0FFF765FF204670BD0000040C0140CE
:1053C000A88121420080214270B50446124800683D
:1053D00020F47040104908600846006840F44050CE
:1053E000086000200D490860002512E0E0090B4923
:1053F000091D08606006040E01200949C1F8A801D2
:10540000FFF764FF002005490860FFF75FFF681C95
:10541000C5B2082DEADB70BD040C0140A881214211
:105420000080214210B50E48006820F470400C49FD
:1054300008600846006840F44050086001200949AF
:1054400008600949C1F8A801FFF740FF002005499D
:105450000860FFF73BFF00200349C1F8A80110BD19
:10546000040C0140AC8121420080214210B50E485D
:10547000006820F470400C4908600846006840F459
:10548000405008600020094908600949C1F8AC0192
:10549000FFF71CFF0120054908600549C1F8AC0170
:1054A000FFF714FF10BD0000040C0140A881214249
:1054B0000080214210B500241448006820F4704098
:1054C000124908600846006840F400400860012066
:1054D0000F490860FFF7FAFE01200E49C1F8A80144
:1054E000FFF7F4FE07E0601CC4B2FA2C03DDFFF7FF
:1054F000BDFF012010BD0648803800680028F2D1A9
:105500000349091F086000BFF4E70000040C0140D4
:10551000AC8121420080214238B50121084601F0CA
:1055200063F80121042001F05FF84FF40040ADF86A
:10553000000010208DF8030003208DF8020069465A
:105540002248FBF7F4FA01212148FBF77BFB0020FE
:1055500020490860FFF7C0FE80216B2000F0DDF8D5
:10556000642002F097FA00216B2000F0D6F80320A7
:1055700000F091F8002000F086F8322000F0B0F83A
:105580000021382000F0C9F800216A2000F0C5F899
:105590000021232000F0C1F88021372000F0BDF861
:1055A000752000F019F80446682C0BD101216B20FE
:1055B00000F0B3F800216C2000F0AFF8322000F0CA
:1055C0008FF801E0012038BD0020FCE70008014011
:1055D00000023000BC01214270B50446FFF722FFF3
:1055E000D020FFF7F1FEFFF765FF2046FFF7ECFE46
:1055F000FFF760FFFFF716FFD120FFF7E5FEFFF78B
:1056000059FF0020FFF7AAFE0546FFF72FFF2846A7
:1056100070BD2DE9F04106460F4614461D46FFF7C2
:1056200001FF002141EA4601C8B2FFF7CDFEFFF7B6
:1056300041FF20B1FFF71AFF0120BDE8F081384695
:10564000FFF7C2FEFFF736FFFFF7ECFE012101EB8B
:105650004601C8B2FFF7B8FEFFF72CFF0DE0012CA2
:1056600004D10020FFF77AFE287003E00120FFF745
:1056700075FE2870601EC4B26D1C002CEFD1FFF7C0
:10568000F5FE0020D9E710B50446E006010E1C2007
:1056900000F043F810BD10B50446E006010E1B20D3
:1056A00000F03BF810BD70B504460025BC2C01DBB2
:1056B000012510E0622C01DB02250CE02A2C01DB25
:1056C000032508E0142C01DB042504E00A2C01DB8F
:1056D000052500E0062529461A2000F01EF870BDB9
:1056E00070B50446B4F57A7F01DD4FF47A74042C6A
:1056F00000DA04244FF47A7090FBF4F0401EC5B237
:105700002946192000F009F80546264604EBD67113
:10571000C1F34F00FFF7C7FF70BD70B505460C46DB
:10572000FFF780FED020FFF74FFEFFF7C3FE18B152
:10573000FFF79CFE012070BD2846FFF745FEFFF7EE
:10574000B9FE2046FFF740FEFFF7B4FE18B1FFF7A1
:105750008DFE0120EFE7FFF789FE0020EBE72DE942
:10576000F04105460E4617469846FFF75BFE0021BE
:1057700041EA4501C8B2FFF727FEFFF79BFE20B1C3
:10578000FFF774FE0120BDE8F0813046FFF71CFEF4
:10579000FFF790FE00240CE018F80400FFF714FE59
:1057A000FFF788FE18B1FFF761FE0120EBE7601CF0
:1057B000C4B2BC42F0DBFFF759FE0020E3E770B54E
:1057C00006460D4614462146304607F08BFB01D2B3
:1057D000264605E02946304607F084FA00D22E46D8
:1057E000304670BD00BFFEE7704708B54FF4E0607B
:1057F00000F048F837208DF8000001208DF80300F4
:1058000000208DF8010003208DF80200684600F0AA
:1058100001F808BD70B5002100230F22C47804B33D
:10582000154C246804F4E064C4F5E064210AC1F175
:105830000403CA40447804FA03F1847814402143F5
:1058400009010E4C0678A155047804F01F050124C7
:10585000AC4005786D11AD0005F1E025C5F80041BB
:1058600009E0047804F01F050124AC40044D0678DB
:10587000761145F8264070BD0CED00E000E400E034
:1058800080E100E002490143024A116070470000D4
:105890000000FA050CED00E0034B9861034B9961A1
:1058A000034B9A61704700001C030020480300204E
:1058B00074030020034B5861034B5961034B5A6139
:1058C000704700001C0300204803002074030020E0
:1058D000034B1861034B1961034B1A6170470000B9
:1058E0001C030020480300207403002000201649F8
:1058F000086048608860C860C861086208614861E3
:105900008861124848621248886200201149086084
:1059100048608860C860C861086208614861886141
:105920000A4848620A48886200200B4908604860BB
:105930008860C860C861086208614861886103487E
:1059400048620348886270471C03002000004843F7
:10595000000048C348030020740300202DE9F05FD5
:1059600081465A48C0F8009002465168106807F016
:10597000EBFA564988600A46516A506807F0B2FA55
:1059800021D25249886807F045F9051E01DB2946F6
:1059900000E06942084607F079F90646494607F0F3
:1059A000A1FA01D2002451E001244849886800216D
:1059B00007F098F94AD2454A9168106A06F0C6FF86
:1059C0004249086242E0414A916A506807F08AF908
:1059D00021D23E49886807F01DF9051E01DB2946E2
:1059E00000E06942084607F051F90646494607F0CB
:1059F00079FA01D2002429E0012434498868002181
:105A000007F070FA22D2314A9168106A06F09EFFC0
:105A10002E4908621AE02D49886807F0FBF8051E38
:105A200001DB294600E06942084607F02FF90646E7
:105A3000494607F057FA01D2002407E00124234A1F
:105A40009168106A06F082FF204908621F4AD168F7
:105A5000906807F079FA07461C488169384607F0D4
:105A600075F90546204607F011F983461748416944
:105A7000584607F06BF980461448016A404607F023
:105A800065F90746114A9168106907F05FF9824687
:105A9000394606F05BFF0646294606F057FF0B49DC
:105AA000C86108468068C860C86906F023FF0746D9
:105AB0000022074B06F044FC054606F0AFF9034907
:105AC000C8610846C069BDE8F09F00004803002097
:105AD0000000F03F2DE9F05F81465A48C0F8009081
